:100000000C94CF000C94B4090C94EC000C945A0797
:100010000C94EC000C94C9060C94EC000C94EC00CD
:100020000C94EC000C944C0F0C94EC000C94EC0031
:100030000C94EC000C94EC000C94EC000C94EC0090
:100040000C94130D0C94EC000C94EC000C94EC004C
:100050000C94EC000C94EC000C94EC000C94FD005F
:100060000C94EC000C94EC003C0B3F0B420B450B4A
:10007000480B4B0B4E0B510B540B570B5A0B5D0B94
:10008000F40EF40EFC0EF40EF80EF40EF80EF40E50
:10009000F40EF80EF40EF80EDA1230133013EE12DE
:1000A000E312F71209131213301330133013001335
:1000B000616C61726D206F6E2100616C61726D20E8
:1000C0006F6666005365742064617900646F6E65C5
:1000D00000616C61726D20696E697400636C6F639E
:1000E0006B20696E697400737065616B657220695D
:1000F0006E697400626F6F737420696E6974007644
:10010000666420696E6974007475726E696E67202A
:100110006F6E20616C61726D7377007475726E69B9
:100120006E67206F6E20627574746F6E7300636CFF
:100130006F636B20696E697400210077616B657471
:10014000696D650057414B455245534554007A004F
:10015000623200623300623100736E6F6F7A650045
:1001600062010B10120F0D0E11136C010307080929
:10017000060A050C047701FC60DAF266B6BEE0FE02
:10018000E68301FA3E1A7ADE8EF62E6078AE1CAA5D
:100190002A3ACEF30AB61E3838B86E76DA00112441
:1001A0001FBECFEFD4E0DEBFCDBF12E0A0E0B1E0D4
:1001B000E0E3F8E202C005900D92A234B107D9F74E
:1001C00022E0A2E4B2E001C01D92A13FB207E1F734
:1001D0000E9403120C9416140C9400007894109250
:1001E0004802109247022091470230914802281796
:1001F0003907C8F30895A89508951F920F920FB676
:100200000F9211242F933F934F935F936F937F939C
:100210008F939F93AF93BF93EF93FF9300B605FE29
:1002200027C080915402811141C05B9A85B1877DBE
:1002300085B95E988CB58F7B8CBD809152028823E6
:1002400061F06091EA0285E090E00E9408146091FC
:10025000F00286E090E00E94081461E08EE491E0F4
:100260000E94FB1015BC1092DF021092680019C0AA
:10027000809154028823D1F080915202882361F04A
:100280006091EA0285E090E00E9408146091F0021B
:1002900086E090E00E94081461E084E491E00E940E
:1002A000FB10E0915602F09157020995FF91EF91F2
:1002B000BF91AF919F918F917F916F915F914F917E
:1002C0003F912F910F900FBE0F901F90189581E0D6
:1002D000809354025B9A8CB58F7B8CBD85B1877DF2
:1002E00085B95E9815BC1092DF021092680085B146
:1002F000897F85B98BB18F7C8BB928988AB18F7C27
:100300008AB920985A985298E1E6F0E090E89083F4
:1003100088E08083449A83B7876083BF8895908301
:100320001082449808958EE284B988E48AB989E1FC
:1003300087B984E38BB981E085B995E09093680033
:1003400080936B0080E380936D000895CF93DF93DB
:1003500084E090E00E940014D8E16D2F0E943913D0
:1003600090935C0285E090E00E940014CCE36C2F37
:100370000E9439139093EA0286E090E00E940014F4
:100380006C2F0E9439139093F00288E090E00E9455
:1003900000146C2F0E9439139093DE0287E090E0E6
:1003A0000E9400146D2F0E9439139093EC0281E09B
:1003B00090E00E94001464E60E9439139093DD02DD
:1003C00082E090E00E9400146DE00E943913909347
:1003D000EF0283E090E00E9400148F718093E002AE
:1003E00091E090935202E6EBF0E08081806280839E
:1003F00085E08093B100909370007894DF91CF9165
:1004000008959C0183709927892B39F4C90164E60A
:1004100070E00E945313892B61F4C90160E971E017
:100420000E9453139C0191E0232B09F090E0892F47
:10043000089581E008958AE090E00E94001480937E
:10044000DF0285B1866085B982E380938000809168
:10045000DF02882329F080918000806880938000EB
:1004600088E1809381008AEF90E0909387008093E9
:10047000860080918600909187009695879590934D
:1004800089008093880090938B0080938A00089560
:100490000F931F93CF93DF9300E810E0F8011082D1
:1004A000C1E8D0E01882299A2A988AE090E00E9458
:1004B000EE002A9A29988AE090E00E94EE0085B129
:1004C000897F85B982EBF801808388E18883DF9199
:1004D000CF911F910F910895CF93C62F9C0140E0BB
:1004E00050E060E472E48FE090E00E949D1330934E
:1004F00087002093860080918600909187009695D2
:10050000879590938B0080938A00909389008093C5
:1005100088006C2F662309F18091810082608093AE
:1005200081002FEF81EE94E0215080409040E1F770
:1005300000C00000809181008D7F8093810085B193
:10054000897F85B92FEF81EE94E021508040904063
:10055000E1F700C000006150DDCF85B1897F85B92A
:10056000CF9108958B3580F58F3110F48EE12DC039
:10057000843210F483E229C0893210F488E225C065
:100580008E3210F48DE221C0833310F482E31DC05B
:10059000883310F487E319C08D3310F48CE315C051
:1005A000823410F481E411C0873410F486E40DC065
:1005B0008C3410F48BE409C0813510F480E505C05B
:1005C000863510F485E501C08AE587BD83E084BDEA
:1005D00081E085BD84B5806884BD80916E008160B6
:1005E00080936E0078940895382FA62F842F5AE0B8
:1005F000652F0E943913E92FF0E0E958FE4FE4918E
:10060000E093E902E82FF0E0E958FE4FE491E0932F
:10061000E8021092E7028A2F0E943913E92FF0E0D6
:10062000E958FE4FE491E093E602E82FF0E0E95844
:10063000FE4FE491E093E5021092E40280915502AE
:10064000811122C0832F90E00B966CE070E00E9435
:10065000671301966AE070E00E946713FC01E95895
:10066000FE4FE491E093E302FB01E958FE4F6491F1
:100670006093E2028091E1023C3010F0816001C0A1
:100680008E7F8093E1020895832F68E10E943913E1
:10069000892F652F0E943913E92FF0E0E958FE4FAA
:1006A000E491E093E302E82FF0E0E958FE4FE49193
:1006B000E093E20208959F92AF92BF92CF92DF92B1
:1006C000EF92FF920F931F93CF93DF931F92CDB7BB
:1006D000DEB7A0905C029090EA020091F0028AE0FE
:1006E0008093420220E08AE0B82E9CE3E92EF12CB0
:1006F00038E1C32ED12C8091450280FDD5C0809178
:100700004502811104C080914402882319F0B092FF
:10071000420205C080914202882309F44BC08091B7
:10072000450281FF4AC010924502211117C0A090D6
:100730005C029090EA020091F002402F692D8A2D10
:100740000E94F4028091E20281608093E202809133
:10075000E30281608093E30221E02FC0213089F41D
:10076000402F692D8A2D0E94F4028091E50281605C
:100770008093E5028091E60281608093E60222E0A8
:100780001CC0223089F4402F692D8A2D0E94F4026A
:100790008091E80281608093E8028091E9028160A3
:1007A0008093E90223E009C0A0925C029092EA02E1
:1007B0000093F0021092EE0277C08091450282FD14
:1007C00004C08091440282FF96CF109245022130EE
:1007D00001F58A2D90E00196B6010E946713182F4B
:1007E000A82E402F692D29830E94F4028091E202F5
:1007F00081608093E2028091E30281608093E30252
:1008000010935C0260915C0284E090E00E94081406
:100810003FC0223009F5892D90E00196B7010E9472
:100820006713182F982E402F682F8A2D29830E9436
:10083000F4028091E50281608093E5028091E602F6
:1008400081608093E6026091EA0285E090E00E9478
:1008500008141093EA021CC02330D9F4802F90E0D2
:100860000196B7010E946713182F082F482F692D92
:100870008A2D29830E94F4029091E802916090935E
:10088000E8029091E90291609093E9021093F002DE
:1008900029818091440282FF2ECF8BE490E029834E
:1008A0000E94EE00298127CF0F90DF91CF911F91F9
:1008B0000F91FF90EF90DF90CF90BF90AF909F90FF
:1008C0000895482F862F1092E9021092E8021092A4
:1008D000E7026AE00E943913E92FF0E0E958FE4F81
:1008E000E491E093E602E82FF0E0E958FE4FE4914E
:1008F000E093E5021092E40280915502242F30E04B
:1009000081111FC09091E1024C3048F091609093AA
:10091000E102E2E9F1E0E491E093E80208C0E3E8F3
:10092000F1E0E491E093E8029E7F9093E102EFE82A
:10093000F1E0E491E093E902C9010B966CE070E00C
:1009400004C0C901479668E170E00E9467130196F0
:100950006AE070E00E946713FC01E958FE4FE491E1
:10096000E093E302FB01E958FE4F64916093E202D9
:100970000895CF92DF92EF92FF920F931F93CF9340
:10098000DF93C091EC02D091DE028AE080934202B4
:1009900010E00AE08CE3C82ED12C98E1E92EF12C6E
:1009A0008091450280FDA7C080914502811104C05D
:1009B00080914402882319F0009342021EC0809166
:1009C000420281111AC01092EE02C093EC02D09341
:1009D000DE026091EC0287E090E00E9408146091D2
:1009E000DE0288E090E0DF91CF911F910F91FF90A0
:1009F000EF90DF90CF900C9408148091450281FF16
:100A000039C010924502111110C06D2F8C2F0E9419
:100A100061048091E20281608093E2028091E302AE
:100A200081608093E30211E025C0113081F46D2FC5
:100A30008C2F0E9461048091E50281608093E50221
:100A40008091E60281608093E60212E013C0C093B9
:100A5000EC02D093DE026091EC0287E090E00E940D
:100A600008146091DE0288E090E00E940814109261
:100A7000EE0241C08091450282FD04C08091440293
:100A800082FF8ECF109245021130A9F48C2F90E096
:100A90000196B7010E946713C82F6D2F0E94610451
:100AA0008091E20281608093E2028091E3028160A2
:100AB0008093E30217C01230A9F48D2F90E00196C5
:100AC000B6010E946713D82F682F8C2F0E946104F3
:100AD0009091E50291609093E5029091E602916019
:100AE0009093E6028091440282FF5ACF8BE490E01B
:100AF0000E94EE0055CFDF91CF911F910F91FF9093
:100B0000EF90DF90CF900895282F862FE5E8F1E051
:100B1000E491E093E902E6E9F1E0E491E093E80290
:100B2000E7E9F1E0E491E093E7026AE00E9439131B
:100B3000E92FF0E0E958FE4FE491E093E602E82F58
:100B4000F0E0E958FE4FE491E093E5021092E402F0
:100B5000822F022E000C990B97FF03C0919581956F
:100B600091096AE070E00E946713FC01E958FE4FAA
:100B7000E491E093E302FB01E958FE4F6491609336
:100B8000E2029091E10227FD02C09D7F01C09260C8
:100B90009093E1020895AF92BF92DF92EF92FF929D
:100BA0000F931F93CF93DF93C0910001D090500219
:100BB0008AE08093420210E00AE08CE3A82EB12C78
:100BC00099E1E92EF12C8091450280FD99C0809138
:100BD0004502811104C080914402882319F00093DA
:100BE000420204C080914202882351F18091450263
:100BF00081FF29C010924502111110C06D2D8C2F5C
:100C00000E9484058091E20281608093E2028091DB
:100C1000E30281608093E30211E015C0113081F49A
:100C20006D2D8C2F0E9484058091E5028160809358
:100C3000E5028091E60281608093E60212E003C043
:100C40001092EE025DC08091450282FD04C0809149
:100C5000440282FFB8CF10924502113049F58C2F23
:100C6000CC0F990B0D96B7010E946713C4EFC80F04
:100C70006D2D8C2F0E9484058091E202816080930B
:100C8000E2028091E30281608093E302C09300015D
:100C90006C2F8DE090E00E94081481E091E00E94AA
:100CA00027118C2F0C2E000C990B0E9461111FC074
:100CB0001230E9F48D2D90E00196B5010E94671382
:100CC000D82FD82E682F8C2F0E9484059091E50292
:100CD00091609093E5029091E60291609093E60214
:100CE000D09350026D2F8EE090E00E940814809106
:100CF000440282FF68CF8BE490E00E94EE0063CF55
:100D0000DF91CF911F910F91FF90EF90DF90BF90F7
:100D1000AF900895CF93DF931092E102A2EEB2E07C
:100D200028E02A0FEC01E991CE01EE23B1F03FE972
:100D30003E0F3A3120F4F0E0EE5DFE4F07C030ED9B
:100D40003E0F3A3030F4F0E0E95BFE4FE491EC9373
:100D500001C01C9211962A13E5CFDF91CF9108951F
:100D600088E592E090934A028093490261E089E528
:100D700091E00E94FB108AE191E00E948A0689E0DE
:100D80008093EE0288EE93E00E94EE001092EE0255
:100D900008951F920F920FB60F9211242F933F9335
:100DA0004F935F936F937F938F939F93AF93BF9373
:100DB000EF93FF931092680078944D9920C0809132
:100DC000460280FD21C08AE090E00E94EE004D992D
:100DD0005DC00E9448028091ED02811125C0809182
:100DE0004602816080934602809145028160809333
:100DF000450261E086E591E00E94FB1005C080910C
:100E000046028E7F809346024C9939C080914602FB
:100E100082FD3CC08AE090E00E94EE004C9936C012
:100E200082E08093430205C00E94B0062FC04C9917
:100E300005C0809143028111FACF16C00E9448027A
:100E4000809146028B7F809346028091ED02811152
:100E5000EBCF61E083E591E00E94FB1080914502B9
:100E600084608093450212C0809146028460809322
:100E700046028091440284608093440207C010922D
:100E80004402809146028B7F8093460285E08093E6
:100E90006800FF91EF91BF91AF919F918F917F91EA
:100EA0006F915F914F913F912F910F900FBE0F90D7
:100EB0001F9018951F920F920FB60F9211242F9327
:100EC0003F934F935F936F937F938F939F93AF93D2
:100ED000BF93EF93FF93109268007894189923C002
:100EE0008091460281FD24C08AE090E00E94EE00DD
:100EF00018991EC00E9448028091ED02882319F0C3
:100F00000E94B00615C0809146028260809346021E
:100F10008091450282608093450261E080E591E026
:100F20000E94FB1005C0809146028D7F809346028F
:100F300085E080936800FF91EF91BF91AF919F9101
:100F40008F917F916F915F914F913F912F910F9072
:100F50000FBE0F901F9018957F928F929F92AF9225
:100F6000BF92CF92DF92EF92FF920F931F93CF9396
:100F7000DF938AE08093420289E090E00E940014AF
:100F8000C82F20E0DAE01EE10AE585E5F82E90E5BD
:100F9000E92E3BE4D32E46E4C42E51E4B52E6CE397
:100FA000A62E77E3972EE2E38E2EFDE27F2E809130
:100FB0004502811104C080914402882319F0D09326
:100FC000420204C080914202882331F1809145029F
:100FD00080FD91C08091450281FF32C01092450290
:100FE00021111AC083E291E00E948A068C2F6D2F96
:100FF0000E943913E82FF0E0E958FE4FE491E160D8
:10100000E093E802E92FF0E0E958FE4FE491E16057
:10101000E093E90221E014C01092EE026C2F89E007
:1010200090E0DF91CF911F910F91FF90EF90DF90B3
:10103000CF90BF90AF909F908F907F900C940814AA
:101040008091450282FD04C08091440282FFAFCFAF
:1010500010924502213011F020E0A9CFCB5FCC35B2
:1010600008F0CEE18C2F6D2F0E943913E82FF0E0AD
:10107000E958FE4FE491E160E093E802E92FF0E0E7
:10108000E958FE4FE491E160E093E902CF3188F145
:10109000C43210F483E203C0C93218F488E287BD79
:1010A00086CFCE3210F477BC82CFC33310F487BC26
:1010B0007ECFC83310F497BC7ACFCD3310F4A7BCE1
:1010C00076CFC23410F4B7BC72CFC73410F4C7BCAB
:1010D0006ECFCC3410F4D7BC6ACFC13510F4E7BC66
:1010E00066CFC63510F4F7BC62CFCB3511F007BD23
:1010F0005ECF17BD5CCFDF91CF911F910F91FF9015
:10110000EF90DF90CF90BF90AF909F908F907F90A7
:1011100008950F931F93CF93DF938AE08093420249
:101120008AE090E00E940014182FD0E00AE080913D
:101130004502811104C080914402882319F0009374
:10114000420204C080914202882369F180914502E5
:1011500080FD66C08091450281FF28C01092450243
:10116000D11121C0112351F08AE291E00E948A0638
:101170008091E60281608093E60204C083E391E0FF
:101180000E948A068091E70281608093E702809145
:10119000E80281608093E8028091E9028160809397
:1011A000E902D1E003C01092EE023AC080914502FC
:1011B00082FFBDCF10924502D13011F0D0E0B7CF01
:1011C000C1E01111C0E01C2FCC2351F08AE291E064
:1011D0000E948A068091E60281608093E60204C044
:1011E00083E391E00E948A069091E70291609093D8
:1011F000E7029091E80291609093E8029091E902F1
:1012000091609093E9026C2F8AE090E00E940814AC
:101210000E941B0261E080EA9FE00E946C0287CF7F
:10122000DF91CF911F910F910895CF93DF938AE0C3
:10123000809342028BE090E00E940014809355025C
:10124000C0E0DAE080914502811104C0809144023F
:10125000882319F0D093420204C08091420288236F
:10126000C9F08091450280FD39C08091450281FF1F
:1012700014C010924502C1110DC080915502811118
:1012800003C08CE391E002C085E491E00E948A06ED
:10129000C1E003C01092EE0221C08091450282FF9E
:1012A000D1CF10924502C13011F0C0E0CBCF81E028
:1012B00090915502911180E080935502811103C0F5
:1012C0008CE391E002C085E491E00E948A0660917F
:1012D00055028BE090E00E940814B4CFDF91CF91CB
:1012E00008954A9B23C08091EB0281113CC081E0AC
:1012F0008093EB0210924A02109249028EE491E030
:101300000E948A0689E08093EE0288EE93E00E94B4
:10131000EE006091DE028091EC020E94610488EE92
:1013200093E00E94EE001092EE0208958091EB028D
:101330008823C9F01092EB0210924A0210924902DF
:101340008091ED02882379F061E08AEB90E00E94C1
:10135000FB101092ED02809181008D7F80938100BF
:1013600085B1866085B908951F920F920FB60F92CE
:1013700011242F933F934F935F936F937F938F939A
:101380009F93AF93BF93CF93EF93FF9389E60E9410
:10139000E710C9B178948AE090E00E94EE0089B12C
:1013A000C4702C2F30E0847090E02817390711F4B6
:1013B0000E947109FF91EF91CF91BF91AF919F91E1
:1013C0008F917F916F915F914F913F912F910F90EE
:1013D0000FBE0F901F901895809154028823E1F161
:1013E00080E8809361001092610061E08BE391E0FE
:1013F0000E94FB10109254028FE39CE90197F1F7D1
:1014000000C0000000B605FC27C00E94930189E0DF
:1014100090E00E9400140E94B20281E58CBD5B98AE
:1014200043988AE090E00E9400148093DF020E94BB
:101430001B02A8950E94710961E080E793E00E9479
:101440006C0261E080EE96E00E946C0261E080EC4C
:101450009DE00E946C02A8950895CF93DF938111BF
:101460007CC01092E10282E08093E4028093E70264
:101470008091550281112BC08091EF022AE0622FEA
:101480000E944513E82F880FFF0BE958FE4FE491A7
:10149000E093E2028091EF02622F0E944513E92F50
:1014A000990FFF0BE958FE4FE491E093E30280911E
:1014B000E002622F0E944513E82F880FFF0BE958C6
:1014C000FE4FE491E093E5028091E0022AC0809112
:1014D000E0022AE0622F0E944513E82F880FFF0BDD
:1014E000E958FE4FE491E093E2028091E002622F1E
:1014F0000E944513E92F990FFF0BE958FE4FE49125
:10150000E093E3028091EF02622F0E944513E82FDF
:10151000880FFF0BE958FE4FE491E093E5028091BC
:10152000EF02622F0E944513E92F990FFF0BE95834
:10153000FE4FE491E093E6028091DD022AE0622F03
:101540000E944513E82F880FFF0BE958FE4FE491E6
:10155000E093E8028091DD02C4C0813009F0CCC084
:10156000E091EF020E2E000CFF0B2091DD02022E07
:10157000000C330B2053384F8091EF0283301CF462
:101580003C96215031098091E0021092E8021092BD
:10159000E902082E000C990B0196820F931FEF01B0
:1015A000CC0FDD1FC80FD91FA90156954795569539
:1015B0004795C40FD51FC90160E971E00E9453131C
:1015C000C60FD71FC90164E670E00E9453139E0145
:1015D000261B370B319646E04E9FC0014F9F900D62
:1015E00011246AE070E00E945313C901860F971F0F
:1015F00067E070E00E94531383309105B1F034F43A
:101600008130910561F0029769F006C0853091053F
:1016100091F074F0069791F087E591E011C08EE5A6
:1016200091E00EC085E691E00BC08DE691E008C028
:1016300086E791E005C08FE791E002C086E891E07F
:101640000E948A0688EE93E00E94EE001092E50266
:101650001092E6021092E702E091EF028E2FEE0F59
:10166000990BAA0BBB0BFC013197EC30F10548F547
:10167000EC5CFF4F0C94BC138FE891E020C083E931
:1016800091E01DC087E991E01AC08DE991E017C093
:1016900083EA91E014C087EA91E011C08CEA91E0FE
:1016A0000EC081EB91E00BC087EB91E008C08CEBA2
:1016B00091E005C082EC91E002C088EC91E00E94CC
:1016C0008A068091E0022AE0622F0E944513E82FEB
:1016D000880FFF0BE958FE4FE491E093E8028091F8
:1016E000E002622F0E944513E92F990FFF0BE95882
:1016F000FE4FE491E093E902DF91CF9108950F93BB
:101700001F93CF93DF938AE080934202C0E0DAE038
:1017100011E004E680914502811104C080914402E9
:10172000882319F0D093420205C080914202882399
:1017300009F466C08091450280FDF5C080914502A4
:1017400081FF61C010924502C1111AC080915502FB
:10175000882339F061E084EC90E00E94FB10C2E045
:1017600001C0C1E080E00E942D0A8091E202816008
:101770008093E2028091E30281608093E30243C0A0
:10178000C13029F480915502882339F01EC0C2303F
:1017900069F5809155028130A9F480915502882322
:1017A00011F0C1E001C0C2E080E00E942D0A8091EA
:1017B000E50281608093E5028091E602816080937A
:1017C000E60221C0882319F011C0813079F480E04D
:1017D0000E942D0A8091E80281608093E802809146
:1017E000E90281608093E902C3E00DC083E6809343
:1017F000EE0280E00E942D0A8CED95E00E94EE0042
:101800001092EE0290C08091450282FD04C080914A
:10181000440282FF7FCF10924502C13061F5809172
:10182000EF028F5F8093EF028091EF028D3014F012
:10183000C093EF0280E00E942D0A80915502811131
:101840000BC08091E20281608093E2028091E3020A
:1018500081608093E3020AC08091E50281608093F9
:10186000E5028091E60281608093E6026091EF02DA
:1018700082E090E04DC0C23061F58091E0028F5F60
:101880008093E0028091E002803214F01093E00235
:1018900080E00E942D0A80915502813059F4809198
:1018A000E20281608093E2028091E3028160809392
:1018B000E3020AC08091E50281608093E502809195
:1018C000E60281608093E6026091E00283E090E0AE
:1018D0001FC0C330F9F48091DD028F5F8093DD0279
:1018E0008091DD02602F0E9445139093DD0280E01D
:1018F0000E942D0A8091E80281608093E802809125
:10190000E90281608093E9026091DD0281E090E06C
:101910000E9408148091440282FFFCCE8CE390E088
:101920000E94EE00F7CEDF91CF911F910F910895A5
:1019300081E58CBD08958EBD0DB407FEFDCF0895E1
:10194000CF93DF9300D0CDB7DEB7F8946A83798365
:101950000E949B0C7981872F0E949B0C6A81862FA5
:101960000E949B0C409A409878940F900F90DF91C2
:10197000CF9108958F929F92AF92BF92CF92DF92B4
:10198000EF92FF92462FE82FF0E0E459FE4FE491EA
:1019900061E070E002C0660F771FEA95E2F7072E5C
:1019A000000C880B990BC0905802D0905902E0901F
:1019B0005A02F0905B0220E030E050E0812C912C44
:1019C00054018394FA01022E02C0F595E7950A941A
:1019D000E2F7E0FF11C0F901EE59FE4FE491750105
:1019E000640104C0CC0CDD1CEE1CFF1CEA95D2F790
:1019F0006C297D298E299F292F5F3F4F2830310583
:101A000009F7C0925802D0925902E0925A02F0921D
:101A10005B02FF90EF90DF90CF90BF90AF909F90D0
:101A20008F900C94A00C1F920F920FB60F9211245E
:101A30002F933F934F935F936F937F938F939F93D6
:101A4000AF93BF93EF93FF937894A89580914D0245
:101A500090914E0201968132910528F490934E02A6
:101A600080934D0268C010924E0210924D028091F8
:101A70004702909148020196909348028093470252
:101A800080914F02893010F010924F0280914F02E6
:101A9000E82FF0E0EF51FD4F60810E94BA0C809179
:101AA0004F028F5F80934F028091ED02882309F4EB
:101AB00042C08091490290914A02892BE1F58091C0
:101AC0004B0290914C0201968536910528F4909333
:101AD0004C0280934B022FC010924C0210924B028A
:101AE0008AEF90E090938700809386008091860033
:101AF000909187009695879590938B0080938A00AC
:101B000090938900809388008091ED02807F49F056
:101B10008091ED028F708093ED02809181008D7F26
:101B200008C08091ED02806F8093ED02809181006A
:101B3000826080938100FF91EF91BF91AF919F915F
:101B40008F917F916F915F914F913F912F910F9066
:101B50000FBE0F901F9018958091C0008078089557
:101B6000FC019281990F9056392F330F330F292F93
:101B7000230F93819053920F8481880F8056282FD2
:101B8000220F220F820F25812053280F5091000130
:101B900040ED450F8181480F8081880F8056382F96
:101BA000330F330F830F840F80935C0280915002B8
:101BB00057FF02C0981B01C0980F9093EA02209330
:101BC000F0020895FC018081880F8056382F330F72
:101BD000330F830F31813053380F8281880F805645
:101BE000282F220F220F820F23812053280F848158
:101BF000880F8056982F990F990F890F95819053D0
:101C0000980F10925302109252023093E0022093E8
:101C1000EF029093DD0208959091EB029923B1F0C9
:101C20009091EC02981312C08091DE0286130EC0D0
:101C300041110CC061E080EB90E00E94FB1081E05C
:101C40008093ED0210924A02109249020895809109
:101C5000F0028C3354F08091F0028C538093F002A8
:101C60008091EA028F5F8093EA028091F00287FF01
:101C70000AC08091F002845C8093F0028091EA02B5
:101C800081508093EA028091EA028C33B4F0809113
:101C9000EA028C538093EA0280915C028F5F80930A
:101CA0005C0260915C0284E090E00E940814609104
:101CB000EA0285E090E00E9408148091EA0287FF22
:101CC00016C08091EA02845C8093EA0280915C02F3
:101CD000815080935C0260915C0284E090E00E94FD
:101CE00008146091EA0285E090E00E940814809157
:101CF0005C02883184F080915C02885180935C02A0
:101D00008091E0028F5F8093E0026091E00283E0C7
:101D100090E00E94081480915C0287FF10C08091BF
:101D20005C02885E80935C028091E0028150809327
:101D3000E0026091E00283E090E00E94081480914C
:101D4000E00280327CF58091E0028F3181F4809155
:101D5000EF02843039F18091EF02863019F18091E1
:101D6000EF028930F9F08091EF028B30D9F0809149
:101D7000E0028E3121F48091EF02823099F080915F
:101D8000E0028D31E9F48091EF028230C9F4809154
:101D9000DD02082E000C990B8053984F0E9401021F
:101DA00081110EC081E08093E0028091EF028F5F8D
:101DB0008093EF026091EF0282E090E00E940814AD
:101DC0008091E0021816DCF1E091EF028E2FEE0F09
:101DD000990BAA0BBB0BFC013197EC30F10530F5E8
:101DE000E05CFF4F0C94BC138091E002815E16C052
:101DF0008091E002825E12C08091DD02082E000C0C
:101E0000990B8053984F0E940102882321F0809102
:101E1000E002835E03C08091E002845E8093E00272
:101E20008091EF0281508093EF0203C081E08093A4
:101E3000E0026091EF0282E090E00E94081480913D
:101E4000EF028D3074F08091DD028F5F8093DD02B0
:101E500081E08093EF026091DD0281E090E00E94DA
:101E600008148091EF021816B4F08091EF02845F9D
:101E70008093EF028091DD0281508093DD026091BA
:101E8000EF0282E090E00E9408146091DD0281E0A0
:101E900090E00C94081408951F920F920FB60F92C1
:101EA00011242F933F934F935F936F937F938F935F
:101EB0009F93AF93BF93EF93FF9380E8809361006C
:101EC000109261008091F0028F5F8093F0020E9477
:101ED000270E80915402811154C08091EE0281112D
:101EE00020C080915302882349F08091F00280FF46
:101EF00005C08EEC91E00E948A0608C04091F00275
:101F00006091EA0280915C020E94F4029091EB02DF
:101F10008091E102992311F0826001C08D7F80934E
:101F2000E1024091F0026091EA0280915C020E941D
:101F30000C0E80914202882329F080914202815048
:101F40008093420280914302882329F080914302CA
:101F50008150809343022091490230914A02211519
:101F6000310579F02150310930934A02209349021A
:101F70008091E10220FF02C0826001C08D7F8093CA
:101F8000E102FF91EF91BF91AF919F918F917F916E
:101F90006F915F914F913F912F910F900FBE0F90D6
:101FA0001F901895EF92FF920F931F93CF93DF939B
:101FB000CDB7DEB72F970FB6F894DEBF0FBECDBFFB
:101FC0008091C6008F8790915102911105C0843293
:101FD00009F0CCC081E020C0EDE5F2E001900020E6
:101FE000E9F73197ED55F240E038F10550F080E81F
:101FF000EDE5F2E0DF011D928A95E9F710925102BA
:10200000B5C0369761F467ED71E08DE592E00E940E
:10201000E713892B61F782E0809351029EC08A32D8
:1020200009F09BC0923019F78CEE91E00E942711C5
:102030008DE592E00E9427116CE270E08DE592E060
:102040000E94DC13FC01319626E0DE011896019017
:102050000D922A95E1F71E8608E010E06CE270E030
:1020600001960E94DC1301501109C1F7FC01319661
:1020700086E0DE01119601900D928A95E1F71F82AC
:102080002D8130E0205331098AE0829FA001839F97
:10209000500D11249E81892F90E0C097840F951FC9
:1020A0000A970CF4A4CF00915C021091EA02CE01D1
:1020B00008960E94B00DCE0101960E94E20D0E948A
:1020C000270E80915C022091EA02022E000C330B55
:1020D000BCE38B02200D311D1124E02EF12C412F89
:1020E00050E08CE3089F400D511D112410915C02BB
:1020F0000091EA02C901841B950B97FF16C0F901F4
:10210000E056FA4FE417F50780F0BC0160567A4FAD
:1021100077FF03C07195619571099195819591093A
:102120006817790714F4185E9F014217530708F0E7
:102130005ECF812F012E000C990B8E159F050CF49C
:1021400056CF07FD07C040E0602F812F0E940C0E84
:102150000150F7CF11500BE3ECCF41E050E0BE014E
:10216000615F7F4F8DE592E00E94F0132F960FB6CE
:10217000F894DEBF0FBECDBFDF91CF911F910F91BD
:10218000FF90EF900895882331F081509EE1000088
:102190009150E9F7F8CF0895882359F02FEF39E6E9
:1021A00098E1215030409040E1F700C0000081509C
:1021B000F3CF08959093C5008093C40088E1809385
:1021C000C1008EE08093C200519A5098089590917A
:1021D000C00095FFFCCF8093C60080E090E008959A
:1021E0008091C00087FFFCCF8091C6000895809148
:1021F000C00080780895FF920F931F93CF93DF93D1
:102200001F92CDB7DEB78C01F12CF801EF0DF11D57
:102210009491992339F0849169830E94E710F39493
:102220006981F3CF662361F08AE00E94E7108DE0B8
:102230000F90DF91CF911F910F91FF900C94E710B9
:102240000F90DF91CF911F910F91FF900895CF9341
:10225000DF93EC018991882319F00E94E710FACFEF
:10226000DF91CF910895CF93C82F82958F708A30D8
:1022700010F4805D01C0895A0E94E7108C2F8F7086
:102280008A3010F4805D01C0895ACF910C94E71018
:10229000CF93C82F892F0E9433118C2FCF910C948C
:1022A0003311CF92DF92EF92FF926B017C01C70155
:1022B0000E944811C601FF90EF90DF90CF900C94E0
:1022C0004811AF92BF92CF92DF92EF92FF920F939D
:1022D0001F93CF93DF931F92CDB7DEB77C0105E04C
:1022E00010E020E080E1A82E87E2B82E9AE0C92E07
:1022F000D12CC701B5010E945313611106C02111F1
:1023000004C081E0A816B10439F480E3860F698324
:102310000E94E71021E069816A9DC0016B9D900DCC
:102320001124E81AF90AC501B6010E9453135B0192
:1023300001501109F1F60F90DF91CF911F910F918C
:10234000FF90EF90DF90CF90BF90AF9008954F92A5
:102350005F926F927F928F929F92AF92BF92CF9235
:10236000DF92EF92FF920F931F93CF93DF934B0176
:102370005C01CAE0D0E000E0C12C8AECD82E8AE9EA
:10238000E82E8BE3F82E9AE0492E512C612C712C0B
:10239000C501B401A70196010E947B13122F2111E0
:1023A00008C0011106C081E0C816D104E104F1049F
:1023B00029F480E3810F0E94E71001E0A12FB0E033
:1023C000A70196010E94C213861A970AA80AB90AA1
:1023D000C701B601A30192010E947B1369017A0132
:1023E0002197B1F6DF91CF911F910F91FF90EF9060
:1023F000DF90CF90BF90AF909F908F907F906F9025
:102400005F904F90089515BC569A5E9884B714BE9D
:1024100090E00E9448110FB6F894A8958091600052
:10242000886180936000109260000FBE9FE088E199
:102430000FB6F894A895809360000FBE909360004B
:10244000A895C1E0C09353021092520287E690E033
:102450000E94DA1061E089E391E00E94FB108EEDAA
:1024600091E00E9427118FEE91E00E94271180E8F1
:1024700090E00E9461118CEE91E00E94271188E4A7
:1024800080BF8FEC97E00197F1F700C0000000B625
:1024900005FE0BC080B7806180BF61E08EE291E0F5
:1024A0000E94FB100E94A6015AC00E9493015B98F3
:1024B00061E08BE191E00E94FB1061E088E091E037
:1024C0000E94FB10C0936900CDBB1092EE0261E048
:1024D0008FEF90E00E94FB1081E58CBD61E084EFFE
:1024E00090E00E94FB1089E090E00E9400140E949E
:1024F000B20278948DE090E00E9400148093000175
:10250000845F893110F0109200018EE090E00E940B
:102510000014809350028D3310F0109250028BE023
:1025200090E00E9400148093550261E087EE90E0F5
:102530000E94FB100E941B0261E080EA9FE00E9463
:102540006C0261E08CED90E00E94FB100E94A601FD
:1025500061E081ED90E00E94FB100E94710961E052
:102560008CEC90E00E94FB10C3E6D8E017E006E098
:102570008BE0F82E95E0E92E23E0D22E34E0C32E36
:10258000A89500B605FE03C00E946701F9CF8091AF
:10259000450280FF50C010924502E091EE028E2F5E
:1025A00090E08C30910508F05BC0FC01E45BFF4FCC
:1025B0000C94BC13C092EE0282E092E00E948A0664
:1025C0000E94B9044FC0D092EE028CE092E00E94CB
:1025D0008A060E945B031092530244C0E092EE020E
:1025E00085E192E00E948A060E947F0B3BC0F09238
:1025F000EE028EE192E00E948A060E94CB0532C074
:102600000093EE0287E292E00E948A060E94AC07E5
:1026100029C01093EE0280E392E00E948A060E9495
:10262000890820C0D093EE0289E392E00E948A06D6
:102630000E94150917C08091450281FD04C0809158
:10264000450282FF0FC010924502C093EE0281E066
:102650000E942D0AA8958CED95E00E94EE00A895A9
:102660001092EE028091C00087FF8ACF0E94D20FA5
:1026700087CF991B79E004C0991F961708F0961B25
:10268000881F7A95C9F78095089587FB082E06263E
:1026900087FD819567FD61950E9439130EF4919530
:1026A00007FC81950895AA1BBB1B51E107C0AA1F17
:1026B000BB1FA617B70710F0A61BB70B881F991FE3
:1026C0005A95A9F780959095BC01CD01089597FB87
:1026D000072E16F4009407D077FD09D00E945313FB
:1026E00007FC05D03EF4909581959F4F0895709515
:1026F00061957F4F0895A1E21A2EAA1BBB1BFD0115
:102700000DC0AA1FBB1FEE1FFF1FA217B307E407D0
:10271000F50720F0A21BB30BE40BF50B661F771F28
:10272000881F991F1A9469F7609570958095909508
:102730009B01AC01BD01CF010895052E97FB1EF44E
:1027400000940E94B41357FD07D00E947B1307FC2E
:1027500003D04EF40C94B4135095409530952195C8
:102760003F4F4F4F5F4F08959095809570956195BD
:102770007F4F8F4F9F4F0895EE0FFF1F0590F491ED
:10278000E02D09940E94CD13A59F900DB49F900D4C
:10279000A49F800D911D11240895A29FB001B39FA5
:1027A000C001A39F700D811D1124911DB29F700D5A
:1027B000811D1124911D0895FC018191861721F03E
:1027C0008823D9F7992708953197CF010895FB0100
:1027D000DC018D91019080190110D9F3990B0895B6
:1027E000FB01DC010D900020E9F7119741505040AA
:1027F00028F0019000200D92C9F708951C920895C9
:10280000F999FECF92BD81BDF89A992780B50895B8
:10281000262FF999FECF1FBA92BD81BD20BD0FB6FC
:10282000F894FA9AF99A0FBE01960895F894FFCF9A
:10283000FA0A0D54696D657A6F6E65206F6666736E
:10284000657420686F75723A0900736E6F6F7A69EC
:102850006E670062726974652000766F6C2068692B
:10286000676800766F6C20206C6F77007573612D40
:1028700031326872006575722D3234687200616C95
:1028800061726D206F6E0073756E646179006D6F9B
:102890006E6461790074756573646179007765644D
:1028A0006E7364617900746875727364617900662F
:1028B0007269646179007361747572646179006A28
:1028C000616E00666562006D6172636800617072BE
:1028D000696C006D6179006A756E65006A756C7966
:1028E0000061756773740073657074006F63746F53
:1028F00062006E6F76656D00646563656D00202013
:1029000020202020202000244750524D43000A0D53
:1029100048656C6C6F20576F726C64210A0D000A59
:102920000D4275666665722073697A652069733A2F
:10293000090073657420616C61726D0073657420A9
:1029400074696D65007365742064617465007365F6
:1029500074207A6F6E65007365742062726974000A
:1029600073657420766F6C200073657420726567E0
:022970006E00F7
:00000001FF
