:100000000C94AC000C94650F0C94C9000C946D0E0C
:100010000C94C9000C94C60E0C94C9000C94C90031
:100020000C94C9000C940A110C94C9000C94C900DA
:100030000C94C9000C94C9000C94C9000C94C9001C
:100040000C94D10D0C94C9000C94C9000C94C900F7
:100050000C94C9000C94CE020C94C9000C94610D50
:100060000C94C9000C94C900FA3E1A7ADE8EF62E62
:100070006078AE1CAA2A3ACEF30AB61E3838B86E9B
:1000800076DA6800FC60DAF266B6BEE0FEF684005E
:1000900003070809060A050C0490000B10120F0D47
:1000A0000E11139B00616C61726D206F66660053C8
:1000B00065742064617900646F6E6500616C6172C3
:1000C0006D20696E697400636C6F636B20696E6983
:1000D0007400626F6F737420696E69740065657077
:1000E000726F6D20696E697400737065616B657203
:1000F00020696E69740076666420696E69740074A4
:1001000075726E696E67206F6E20616C61726D73BF
:1001100077007475726E696E67206F6E20627574F9
:10012000746F6E7300636C6F636B20696E6974002B
:10013000210057414B455245534554007A00616CAC
:1001400061726D206F6E2100623200623300623195
:1001500000736E6F6F7A650011241FBECFEFD4E07D
:10016000DEBFCDBF12E0A0E0B1E0EAEFF8E202C0EE
:1001700005900D92A633B107D9F712E0A6E3B2E0DD
:1001800001C01D92A836B107E1F70E94A50F0C949B
:100190007C140C9400009C017894109245021092FB
:1001A0004402809144029091450282179307C8F35C
:1001B0000895A895089581E0809339025B9A8CB5E3
:1001C0008F7B8CBD85B1877D85B95E9815BC1092FB
:1001D000520210926800459885B1897F85B98BB12C
:1001E0008F7C8BB928988AB18F7C8AB920985A98CD
:1001F0005298E1E6F0E090E8908388E08083449AAA
:1002000083B7876083BF8895908310824498089550
:100210008EE284B988E48AB989E087B984E38BB92E
:1002200091E095B985E08093680090936B0080E33E
:1002300080936D000895A4E0B0E00E946814802DC2
:1002400068E10E94F81390934F02A5E0B0E00E948D
:100250006814802D6CE30E94F81390935D02A6E071
:10026000B0E00E946814802D0E94F81390936702FA
:10027000A8E0B0E00E946814802D0E94F8139093CB
:100280005102A7E0B0E00E946814802D68E10E944E
:10029000F81390935F02A1E0B0E00E946814802DF3
:1002A00064E60E94F81390935002A2E0B0E00E942E
:1002B0006814802D6DE00E94F81390936602A3E00D
:1002C000B0E00E946814802D8F718093530291E0FA
:1002D00090933B02E6EBF0E080818062808385E0D2
:1002E0008093B10090937000789408959C0183707E
:1002F0009070892B51F4C90164E670E00E940414E7
:10030000892B19F081E090E00CC0E0E0F0E0C90139
:1003100060E971E00E940414892B11F4E1E0F0E03F
:10032000CF0190E00895AAE0B0E00E946814802D0B
:100330008093520285B1866085B982E38093800004
:1003400080915202882329F08091800080688093F8
:10035000800088E1809381008AEF90E0909387008D
:10036000809386008091860090918700969587956E
:1003700090938900809388008091880090918900F3
:1003800090938B0080938A000895109280001092C1
:100390008100299A2A98789410924502109244027A
:1003A00080914402909145020A97D0F32A9A2998A5
:1003B00078941092450210924402809144029091E8
:1003C00045020A97D0F385B1897F85B982EB809386
:1003D000800088E18093810008951F93162F9C016F
:1003E00040E050E060E472E48FE090E00E944D1441
:1003F000309387002093860080918600909187003B
:100400009695879590938B0080938A0080918A00BF
:1004100090918B0090938900809388001FC08091F9
:10042000810082608093810020ED37E088EC90E0CD
:100430000197F1F721503040C9F7809181008D7FFD
:100440008093810085B1897F85B920ED37E088EC04
:1004500090E00197F1F721503040C9F71150F8F6BC
:1004600085B1897F85B91F91089520E030E0D901D9
:100470000E946814802D813009F44EC091E0D901AA
:10048000092E0E94701480E0A1E0B0E0082E0E94C6
:100490007014A2E0B0E0092E0E947014A3E0B0E056
:1004A000092E0E947014A4E0B0E0082E0E9470147F
:1004B000A5E0B0E0082E0E947014A6E0B0E0082E7F
:1004C0000E9470142AE0A7E0B0E0022E0E9470148F
:1004D000A8E0B0E0082E0E9470149EE1A9E0B0E010
:1004E000092E0E947014AAE0B0E0082E0E94701439
:1004F000ABE0B0E0082E0E947014ACE0B0E0022E39
:100500000E947014AEE0B0E0082E0E94701462E009
:1005100088EB9BE00E94ED0108953D9A459AAAE779
:10052000B0E08C9186608C93ECE7F0E08081806491
:100530008083808184608083EEE7F0E08081806149
:1005400080838C9180688C938C9188608C930895C3
:1005500080916002882329F480917A0080648093DE
:100560007A000895982F8B3510F09AE503C08E31EC
:1005700008F49EE187B5891397BD08950E94B202E1
:1005800083E084BD81E085BD84B5806884BDEEE6EE
:10059000F0E0808181608083789408951F920F92AB
:1005A0000FB60F9211242F933F934F935F936F9346
:1005B0007F938F939F93AF93BF93EF93FF9380911C
:1005C0006002882391F5209178008091790090E075
:1005D000782F662730E0622B732B70936302609351
:1005E000620283E0623F780718F08EE190E01BC062
:1005F00081E0653F780718F48AE590E014C0645FF5
:10060000714080E090E02CE330E040E050E00E9458
:10061000D9132EEF31E040E050E00E942B148AE520
:1006200090E0821B930B0E94B202FF91EF91BF9169
:10063000AF919F918F917F916F915F914F913F917A
:100640002F910F900FBE0F901F9018959C0100974F
:10065000A9F4E8E6F0E08491816080935B027496EF
:10066000E491E160E0935C0280916002882301F5EF
:1006700080917A00806480937A0008956AE070E047
:100680000E941814FB01EC57FF4FE491E160E093E6
:100690005B02C9016AE070E00E941814FC01EC578B
:1006A000FF4FE491E160E0935C02822F0E94B2026E
:1006B0000895CF93DF9380916602C82FD0E0809198
:1006C0005002E82FF0E0E053F84F8091660283304B
:1006D00010F42C9631972091530230E02F5F3F4F5A
:1006E0002E0F3F1FCE01880F991F280F391FCF01F2
:1006F0009695879596958795280F391FCF0160E9C4
:1007000071E00E940414260F371FCF0164E670E0E9
:100710000E940414261B370BAE014F5F5F4FCA01C6
:10072000880F991F840F951F880F991F6AE070E04A
:100730000E940414C901860F971F67E070E00E94B1
:10074000041490E0DF91CF9108951F93182F262F66
:10075000842F6AE00E94F813E92FF0E0EC57FF4F76
:10076000E491E0935C02842F0E94F813E82FF0E0FC
:10077000EC57FF4FE491E0935B0210925A02822FF4
:100780000E94F813E92FF0E0EC57FF4FE491E0935B
:100790005902822F0E94F813E82FF0E0EC57FF4F28
:1007A000E491E09358021092570280913802882316
:1007B00051F5812F90E00B966CE070E00E941814C8
:1007C0009C0101966AE070E00E941814FC01EC574D
:1007D000FF4FE491E0935602265F3F4F23313105EE
:1007E00018F41092550205C0E5E8F0E0E491E093BA
:1007F0005502809154021C3010F0816001C08E7F40
:10080000809354021AC0812F68E10E94F813292FA7
:10081000892F6AE00E94F813E92FF0E0EC57FF4FB0
:10082000E491E0935602822F0E94F813E82FF0E043
:10083000EC57FF4FE491E09355021F910895CF923A
:10084000DF92EF92FF920F931F93F0904F02D090A0
:100850005D02E09067028AE080934A02CC24809196
:10086000470280FDEDC080914702882321F48091EA
:100870004802882321F08AE080934A0205C08091D3
:100880004A02882309F457C08091470281FF56C06D
:1008900010924702CC20C1F4F0904F02D0905D023C
:1008A000E09067024E2D6D2D8F2D0E94A503809143
:1008B0005502816080935502809156028160809339
:1008C0005602CC24C3943AC081E0C81691F44E2D50
:1008D0006D2D8F2D0E94A503809158028160809319
:1008E00058028091590281608093590212E0C12E12
:1008F00025C092E0C91691F44E2D6D2D8F2D0E94CA
:10090000A50380915B02816080935B0280915C0211
:10091000816080935C02B3E0CB2E10C0F0924F0256
:10092000D0925D02E092670280E092E09F1508F0AD
:1009300081E080933C021092640282C08091470261
:1009400082FD04C08091480282FF89CF1092470245
:1009500081E0C81609F58F2D90E0019668E170E0FE
:100960000E9418148C01F82E4E2D6D2D0E94A503A7
:10097000809155028160809355028091560281607A
:100980008093560200934F0280914F02A4E0B0E0A2
:10099000082E0E94701442C092E0C91611F58D2DE8
:1009A00090E001966CE370E00E9418148C01D82E40
:1009B0004E2D682F8F2D0E94A503809158028160D3
:1009C00080935802809159028160809359028091EE
:1009D0005D02A5E0B0E0082E0E94701400935D0255
:1009E0001DC083E0C816D1F48E2D90E001966CE313
:1009F00070E00E9418148C01E82E482F6D2D8F2D69
:100A00000E94A50380915B02816080935B028091CC
:100A10005C02816080935C020093670280914802CF
:100A200082FF1DCF7894109245021092440280916B
:100A30004402909145028B34910508F010CFF7CF16
:100A40001F910F91FF90EF90DF90CF900895382F76
:100A5000262F10925C0210925B0210925A02862F8F
:100A60006AE00E94F813E92FF0E0EC57FF4FE491A1
:100A7000E0935902822F0E94F813E82FF0E0EC5720
:100A8000FF4FE491E0935802109257028091380290
:100A9000882309F038C090915402E8E6F0E03C3039
:100AA00040F09160909354023F96849180935B0252
:100AB00006C0849180935B029E7F90935402E4E78A
:100AC000F0E0E491E0935C02832F90E00B966CE001
:100AD00070E00E9418149C0101966AE070E00E9488
:100AE0001814FC01EC57FF4FE491E0935602265F87
:100AF0003F4F2331310518F4109255020895E5E86F
:100B0000F0E0E4911EC0832F90E0479668E170E02A
:100B10000E9418149C012F5F3F4FC9016AE070E0EA
:100B20000E941814FC01EC57FF4FE491E093560229
:100B3000C9016AE070E00E941814FB01EC57FF4FF6
:100B4000E491E09355020895FF920F931F93109143
:100B50005F02009151028AE080934A02FF24809153
:100B6000470280FDB5C080914702882321F480911F
:100B70004802882321F08AE080934A0219C08091BC
:100B80004A028823A9F41092640210935F02009332
:100B9000510280915F02A7E0B0E0082E0E9470141D
:100BA00080915102A8E0B0E0082E0E94701490C01D
:100BB0008091470281FF3EC010924702FF2089F4D6
:100BC000602F812F0E9427058091550281608093BC
:100BD000550280915602816080935602FF24F3945F
:100BE00029C081E0F81689F4602F812F0E94270523
:100BF00080915802816080935802809159028160EF
:100C00008093590282E0F82E15C010935F02009382
:100C1000510280915F02A7E0B0E0082E0E9470149C
:100C200080915102A8E0B0E0082E0E94701410924A
:100C300064024EC08091470282FD04C08091480248
:100C400082FF8DCF1092470281E0F816B1F4812F18
:100C500090E0019668E170E00E941814182F602F50
:100C60000E942705809155028160809355028091F2
:100C7000560281608093560219C082E0F816B1F4E2
:100C8000802F90E001966CE370E00E941814082F0A
:100C9000682F812F0E9427058091580281608093E0
:100CA00058028091590281608093590280914802D4
:100CB00082FF55CF789410924502109244028091A1
:100CC0004402909145028B34910508F048CFF7CF4C
:100CD0001F910F91FF900895CF93DF9310925402CC
:100CE000DC01C5E5D2E0EC91EE23D1F08E2F8156E8
:100CF0008A3128F4F0E0E95FFF4FE49108C08E2FBD
:100D000080538A3030F4F0E0EC5AFF4FE491E883EE
:100D100001C018821196219682E0CD35D80719F7C7
:100D2000DF91CF910895882309F07CC0109254027E
:100D300082E08093570280935A0280913802882380
:100D400061F5809166026AE00E94F813E82FF0E0F6
:100D5000EC57FF4FE491E0935502809166020E94A8
:100D6000F813E92FF0E0EC57FF4FE491E0935602BF
:100D7000809153020E94F813E82FF0E0EC57FF4FE8
:100D8000E491E0935802809153020E94F813E92FF6
:100D9000F0E0EC57FF4FE4912BC0809153026AE0E2
:100DA0000E94F813E82FF0E0EC57FF4FE491E09336
:100DB0005502809153020E94F813E92FF0E0EC579E
:100DC000FF4FE491E0935602809166020E94F8136F
:100DD000E82FF0E0EC57FF4FE491E0935802809148
:100DE00066020E94F813E92FF0E0EC57FF4FE49100
:100DF000E0935902809150026AE00E94F813E82FB4
:100E0000F0E0EC57FF4FE491E0935B0280915002D9
:100E10000E94F813E92FF0E0EC57FF4FE491E093C4
:100E20005C020895813009F09EC010925B0210921E
:100E30005C020E9459038330B9F0843028F4813079
:100E400069F0823070F407C08530A1F0853078F009
:100E50008630B9F412C080E091E011C087E091E0E3
:100E60000EC08EE091E00BC086E191E008C08FE1FA
:100E700091E005C088E291E002C08FE291E00E941B
:100E80006C067894109245021092440280914402BC
:100E900090914502885E9340C8F3109258021092D8
:100EA000590210925A0280916602863079F1873099
:100EB00070F4833011F1843028F48130C1F0823035
:100EC000D9F518C08430E1F08530B1F51CC0893007
:100ED00031F18A3028F48730E1F0883069F51CC0A0
:100EE0008B3019F18B30F0F08C3031F521C088E374
:100EF00091E020C08CE391E01DC080E491E01AC035
:100F000086E491E017C08CE491E014C080E591E0A4
:100F100011C085E591E00EC08AE591E00BC080E646
:100F200091E008C085E691E005C08BE691E002C043
:100F300081E791E00E946C06809153026AE00E9472
:100F4000F813E82FF0E0EC57FF4FE491E0935B02D9
:100F5000809153020E94F813E92FF0E0EC57FF4F05
:100F6000E491E0935C020895EF92FF921F93CF9378
:100F7000DF938AE080934A02ABE0B0E00E946814FD
:100F8000802D8093380210E090E8E92E91E0F92E50
:100F9000C7E7D1E080914702882321F4809148027D
:100FA000882321F08AE080934A0204C080914A029B
:100FB0008823B9F08091470280FD35C080914702B7
:100FC00081FF12C010924702112359F48091380218
:100FD000882311F4CE0101C0C7010E946C0611E004
:100FE00003C0109264021FC08091470282FFD2CFDB
:100FF00010924702113071F690E0809138028823F8
:1010000009F491E090933802992311F4CE0101C0C4
:10101000C7010E946C0680913802ABE0B0E0082E58
:101020000E947014B7CFDF91CF911F91FF90EF9086
:101030000895CF92DF92FF920F931F93CF93DF9388
:101040008AE080934A02AAE0B0E00E946814002D72
:10105000FF2422E9C22E21E0D22EC9E8D1E08091FE
:101060004702882321F480914802882321F08AE0F6
:1010700080934A0204C080914A02882361F18091E2
:10108000470280FD64C08091470281FF27C0109213
:101090004702FF2001F5002349F0CE010E946C06B3
:1010A0008091590281608093590203C0C6010E9459
:1010B0006C0680915A02816080935A0280915B0293
:1010C000816080935B0280915C02816080935C020E
:1010D000FF24F39403C01092640239C08091470248
:1010E00082FFBDCF1092470281E0F81609F0B7CF1A
:1010F00010E0002309F411E0012F112349F0CE0183
:101100000E946C068091590281608093590203C04D
:10111000C6010E946C0680915A02816080935A0237
:1011200080915B02816080935B0280915C028160B0
:1011300080935C02AAE0B0E0012E0E9470140E942D
:10114000930161E080EA9FE00E94ED0188CFDF918A
:10115000CF911F910F91FF90DF90CF900895EF9264
:10116000FF921F93CF93DF938AE080934A0210E0AF
:1011700034EAE32E31E0F32ECBE9D1E0809147024F
:10118000882321F480914802882321F08AE080930B
:101190004A0204C080914A028823B9F08091470234
:1011A00080FD39C08091470281FF12C01092470232
:1011B000112359F480916502882311F0CE0101C0FA
:1011C000C7010E946C0611E003C01092640223C0A4
:1011D0008091470282FFD2CF10924702113071F600
:1011E0008091650290E0882309F491E09093650274
:1011F00010923C0280916502882311F0CE0101C05B
:10120000C7010E946C0680916502AEE0B0E0082E36
:101210000E947014B3CFDF91CF911F91FF90EF9098
:1012200008951F93CF93DF938AE080934A0210E0E2
:10123000CDEAD1E080914702882321F480914802D1
:10124000882321F08AE080934A0204C080914A02F8
:101250008823B1F08091470280FD41C08091470210
:1012600081FF18C010924702112351F4CE010E9451
:101270006C068091600290E00E94260311E00AC093
:101280001092640280916002A9E0B0E0082E0E94F2
:10129000701425C08091470282FD04C080914802ED
:1012A00082FFC8CF10924702113021F68091600270
:1012B000882321F48EE1809360020BC0809160024C
:1012C0008B5F80936002809160028B3510F01092EA
:1012D00060028091600290E00E942603ABCFDF9114
:1012E000CF911F9108952F923F924F925F926F92EC
:1012F0007F928F929F92AF92BF92CF92DF92EF92A6
:10130000FF920F931F93CF93DF93CDB7DEB7219753
:101310000FB6F894DEBF0FBECDBFC0906702882322
:1013200021F44D9972C14C9970C161E080ED97E054
:101330000E94ED0161E088EB9BE00E94ED0161E01D
:1013400080EA9FE00E94ED014D9BFECF4C9BFECFBB
:10135000A4E5B2E01D9282E0AD35B807D9F78CE084
:1013600080936402198200E0DD2415E0FF24EE245E
:10137000EA94E1EC4E2EE1E05E2E7AEC272E71E04D
:10138000372E6EEB862E61E0962E54EB652E51E0E3
:10139000752E45ECA42E41E0B42EA895FF2009F44B
:1013A0003CC02091620230916302C9016AE070E0A2
:1013B0000E940414FC01EC57FF4FE491E0935C029F
:1013C000C9016AE070E00E9404149B01CB016AE04D
:1013D00070E00E940414FC01EC57FF4FE491E0938D
:1013E0005B02C9016AE070E00E9404149B01CB011A
:1013F0006AE070E00E940414FC01EC57FF4FE49196
:10140000E0935A02C9016AE070E00E940414FB01F3
:10141000EC57FF4FE491E09359028091470280FF1F
:1014200035C061E080ED97E00E94ED0180914702B8
:101430008E7F80934702FF2049F5002399F4809125
:101440005402882311F481E003C0813021F482E04A
:10145000809354021BC01092540281E08093550285
:1014600001E014C0E02FF0E0EC5AFD4F8081880FBE
:101470008083882359F40F5F093011F400E006C01F
:10148000E02FF0E0EC5AFD4F81E08083809147022D
:1014900081FF1BC061E084EC99E00E94ED01809126
:1014A00047028D7F80934702FF2079F4E09060022D
:1014B0001092600280916002882329F480917A0062
:1014C000806480937A00FF24F3948091470282FF26
:1014D0001CC061E088EB9BE00E94ED018091470217
:1014E0008B7F80934702FF2081F09FEFE91629F060
:1014F000E09260028E2D0E94B202E4E5F2E01192C9
:1015000082E0ED35F807D9F7FF2480916702C8160D
:1015100009F46AC0C09267020E94C5014D9955C086
:101520004C9949C01150123091F0133018F4113019
:10153000A1F40FC0133049F0143079F4E02FF0E03B
:10154000EC5AFD4FD080C30105C0C40103C0C201E5
:1015500001C0C5010E946C0647C0C1010E946C0613
:10156000112309F041C04D9BFECF4C9BFECF61E0A3
:1015700080EA9FE00E94ED0161E088EB9BE00E9421
:10158000ED0161E080ED97E00E94ED019FEFE9162B
:10159000E1F1EE2031F0E09260028E2D0E94B20265
:1015A00034C080916002882381F580917A00806444
:1015B00080937A002AC01530B0F4E4E5F2E011928D
:1015C00082E0ED35F807D9F709C0153060F4E4E59D
:1015D000F2E0119292E0ED35F907D9F7E02FF0E053
:1015E000EC5AFD4FD08215E080915E02E981E81748
:1015F00009F4D3CEF0915E02F98360915E026F5FD1
:1016000080EA9FE00E94ED01C8CE21960FB6F894C3
:10161000DEBF0FBECDBFDF91CF911F910F91FF9025
:10162000EF90DF90CF90BF90AF909F908F907F9082
:101630006F905F904F903F902F9008958AE0809335
:101640004A0280914702882321F48091480288232E
:1016500021F08AE080934A0204C080914A028823E4
:1016600069F08091470280FD13C08091470281FF9D
:1016700008C01092470281E00E9473091092640230
:1016800008958091470282FFDCCF10924702D9CFA4
:10169000089581E58CBD08959B01AC01F894AA27BB
:1016A000BB278EBD0DB407FEFDCFBB27A52F942F02
:1016B000832F8EBD0DB407FEFDCF2EBD0DB407FEEA
:1016C000FDCF409A409878940895EF92FF920F933F
:1016D0001F93E82FF0E0E057FF4FE49181E090E0A6
:1016E00002C0880F991FEA95E2F77C010027F7FCFA
:1016F0000095102F20914B0230914C0240914D02E9
:1017000050914E02A0E0B0E070E0CB010A2E02C082
:10171000959587950A94E2F780FF13C0FD01E55681
:10172000FF4FE49121E030E040E050E004C0220FA0
:10173000331F441F551FEA95D2F7E22AF32A042BE0
:10174000152B1196A830B10501F720934B02309369
:101750004C0240934D0250934E02C801B7010E94C3
:101760004C0B1F910F91FF90EF9008958EBD0DB41B
:1017700007FEFDCF08954A9B39C080915E02882301
:1017800009F051C081E080935E02109243021092F2
:10179000420280916402882309F045C082ED91E005
:1017A0000E946C0689E0809364027894109245024E
:1017B000109244028091440290914502885E9340C9
:1017C000C8F36091510280915F020E9427057894CE
:1017D0001092450210924402809144029091450279
:1017E000885E9340C8F310926402089580915E026F
:1017F0008823C9F010925E021092430210924202B6
:1018000080916102882379F061E085EA90E00E948E
:10181000B61310926102809181008D7F80938100C8
:1018200085B1866085B908951F93CF93DF938AE0D1
:1018300080934A0210E0CFEAD0E0809147028823EB
:1018400021F480914802882321F08AE080934A02A3
:1018500005C080914A02882309F471C08091470233
:1018600080FD0AC18091470281FF6CC0109247023F
:101870001123C9F480913802882311F411E005C0C6
:1018800061E0CE010E94B61312E080E00E94930650
:10189000809155028160809355028091560281604B
:1018A000809356024FC0113029F48091380288236A
:1018B00039F01EC01230E1F4809138028130A9F471
:1018C00080913802882311F412E001C011E080E019
:1018D0000E94930680915802816080935802809103
:1018E00059028160809359022DC0882339F015C0B8
:1018F000113099F480913802813079F480E00E94AF
:10190000930680915B02816080935B0280915C0210
:10191000816080935C0213E015C083E680936402CB
:1019200080E00E949306789410924502109244023F
:1019300080914402909145028C5D9540C8F31092CD
:1019400064029AC08091470282FD04C080914802DF
:1019500082FF73CF10924702113061F580916602C9
:101960008F5F80936602809166028D3010F0109335
:10197000660280E00E94930680913802882359F421
:10198000809155028160809355028091560281605A
:10199000809356020AC08091580281608093580259
:1019A0008091590281608093590280916602A2E081
:1019B000B0E04EC0123069F5809153028F5F809382
:1019C000530280915302803218F081E080935302D9
:1019D00080E00E94930680913802813059F4809112
:1019E00055028160809355028091560281608093F8
:1019F00056020AC0809158028160809358028091FB
:101A0000590281608093590280915302A3E0B0E0B3
:101A10001FC0133001F5809150028F5F80935002F8
:101A20008091500264E60E94F8139093500280E087
:101A30000E94930680915B02816080935B0280919B
:101A40005C02816080935C0280915002A1E0B0E072
:101A5000082E0E9470148091480282FFEECE789486
:101A600010924502109244028091440290914502E6
:101A7000CC9708F0E2CEF8CFDF91CF911F91089577
:101A800088E592E0909343028093420261E081E511
:101A900091E00E94B6138BED91E00E946C0689E004
:101AA00080936402789410924502109244028091CF
:101AB000440290914502885E9340C8F310926402FC
:101AC00008951F920F920FB60F9211242F933F93F8
:101AD0004F935F936F937F938F939F93AF93BF9336
:101AE000EF93FF9300B605FE2BC080913902882347
:101AF00009F046C05B9A85B1877D85B95E988CB543
:101B00008F7B8CBD80913B02882371F080915D02B8
:101B1000A5E0B0E0082E0E94701480916702A6E054
:101B2000B0E0082E0E94701461E08CE391E00E9406
:101B3000B61315BC109252021092680045981BC053
:101B4000809139028823E1F080913B02882371F073
:101B500080915D02A5E0B0E0082E0E947014809193
:101B60006702A6E0B0E0082E0E94701461E082E3F4
:101B700091E00E94B613E0913602F0913702099588
:101B8000FF91EF91BF91AF919F918F917F916F9155
:101B90005F914F913F912F910F900FBE0F901F902B
:101BA00018951F920F920FB60F9211242F933F9307
:101BB0004F935F936F937F938F939F93AF93BF9355
:101BC000EF93FF937894A89580913E0290913F0205
:101BD000019690933F0280933E02819708F46CC077
:101BE00010923F0210923E02809144029091450271
:101BF0000196909345028093440280913D02893082
:101C000010F010923D0280913D02E82FF0E0EC5A76
:101C1000FD4F60810E94650B80913D028F5F809334
:101C20003D0280916102882309F446C080914202FE
:101C300090914302892B09F03FC08091400290911E
:101C400041020196909341028093400285369105AE
:101C500098F110924102109240028AEF90E0909326
:101C600087008093860080918600909187009695EA
:101C7000879590938B0080938A0080918A00909141
:101C80008B00909389008093880080916102807F0F
:101C900049F0809161028F70809361028091810090
:101CA0008D7F08C080916102806F80936102809176
:101CB0008100826080938100FF91EF91BF91AF918D
:101CC0009F918F917F916F915F914F913F912F9154
:101CD0000F900FBE0F901F9018951F920F920FB686
:101CE0000F9211242F933F934F935F936F937F93A2
:101CF0008F939F93AF93BF93EF93FF9310926B00DB
:101D0000789418992AC08091460281FD2BC078945E
:101D10001092450210924402809144029091450233
:101D20000A97D0F318991EC00E94C50180916102E4
:101D3000882319F00E94400D15C0809146028260F0
:101D4000809346028091470282608093470261E05F
:101D500088E491E00E94B61305C0809146028D7F11
:101D60008093460281E080936B00FF91EF91BF91D9
:101D7000AF919F918F917F916F915F914F913F9123
:101D80002F910F900FBE0F901F9018951F920F92DA
:101D90000FB60F9211242F933F934F935F936F933E
:101DA0007F938F939F93AF93BF93EF93FF93109283
:101DB0006D007894A8954D9927C08091460280FDCA
:101DC00028C07894109245021092440280914402F7
:101DD000909145020A97D0F34D9963C00E94C501C6
:101DE000809161028823C9F58091460281608093C9
:101DF00046028091470281608093470261E08EE451
:101E000091E00E94B61305C0809146028E7F8093B8
:101E100046024C993FC08091460282FD42C07894B0
:101E20001092450210924402809144029091450222
:101E30000A97D0F34C9935C082E0809349021BC0C9
:101E40004C9B19C00E94C501809146028B7F8093F4
:101E5000460280916102882319F00E94400D21C042
:101E600061E08BE491E00E94B613809147028460A8
:101E70008093470216C080914902882309F7809118
:101E80004602846080934602809148028460809379
:101E9000480207C010924802809146028B7F8093CF
:101EA000460280E380936D00FF91EF91BF91AF9167
:101EB0009F918F917F916F915F914F913F912F9162
:101EC0000F900FBE0F901F9018951F920F920FB694
:101ED0000F9211242F933F934F935F936F937F93B0
:101EE0008F939F93AF93BF93EF93FF931DBA89E6B0
:101EF0000E94A61229B1789478941092450210920B
:101F0000440280914402909145020A97D0F389B12E
:101F1000247030E090E0847090702817390711F435
:101F20000E94BB0B81E08DBBFF91EF91BF91AF9100
:101F30009F918F917F916F915F914F913F912F91E1
:101F40000F900FBE0F901F9018954F925F926F9257
:101F50007F928F929F92AF92BF92CF92DF92EF9239
:101F6000FF920F931F93CF93DF934D9B02C000E02E
:101F700005C009B102950F700095017015BC569A05
:101F80005E9884B714BE88E10FB6F8948093600021
:101F9000109260000FBE88E190E02FE00FB6F89439
:101FA000A895809360000FBE20936000A89511E073
:101FB00010933A0210923B028AE190E00E9499123B
:101FC00061E080E391E00E94B61388E480BF00B630
:101FD00005FE0BC080B7806180BF61E085E291E0C3
:101FE0000E94B6130E941B0165C00E9408015B9805
:101FF00061E082E191E00E94B61361E08FEF90E032
:102000000E94B613109369001DBB1092640261E038
:1020100086EF90E00E94B61381E58CBD61E089EE09
:1020200090E00E94B6130E94930161E08DED90E074
:102030000E94B6130E9435020E948D0261E082ED7B
:1020400090E00E94B613A9E0B0E00E946814802DD1
:1020500080936002809160020E94BE027894ABE09F
:10206000B0E00E946814802D80933802AEE0B0E0AA
:102070000E946814802D8093650261E080EA9FE0F1
:102080000E94ED0161E087EC90E00E94B6130E948F
:102090001B0161E08CEB90E00E94B6130E94BB0B29
:1020A000002341F08CE08093640280E00E94730979
:1020B0001092640261E087EB90E00E94B61330E07A
:1020C000432E32E0532E22E1622E22E0722E99E05E
:1020D000892E92E0992E8BE1A82E82E0B82E04E2A0
:1020E000C02E02E0D02E17EFE12E11E0F12ECEEE41
:1020F000D1E004EE11E0A89500B605FE03C00E94F1
:10210000DB00F9CF8091470280FF63C01092470245
:1021100080916402853081F1863038F4833019F182
:102120008430B0F4882359F072C08730B9F1873019
:1021300060F18830E1F18D3009F069C041C084E080
:1021400080936402C8010E946C060E94A405D3CF4C
:1021500083E080936402CE010E946C060E941F04FB
:1021600010923A02C8CF85E080936402C7010E94B2
:102170006C060E94140CBFCF86E080936402C201FB
:102180000E946C060E941109B6CF87E0809364021A
:10219000C4010E946C060E941908ADCF88E08093AC
:1021A0006402C3010E946C060E94B407A4CF8DE0B4
:1021B00080936402C5010E946C060E94AF089BCF09
:1021C0008CE080936402C6010E946C060E941E0B84
:1021D00092CF8091470281FD04C08091470282FF27
:1021E0008ACF1092470283E68093640281E00E94C6
:1021F0009306A8957894109245021092440280911B
:102200004402909145028C5D9540C8F3A8951092C8
:10221000640271CF1F920F920FB60F9211242F9369
:102220003F934F935F936F937F938F939F93AF935E
:10223000BF93EF93FF9380E8809361001092610059
:10224000809167028F5F80936702809167028C3371
:1022500038F01092670280915D028F5F80935D027B
:1022600080915D028C3308F45EC010925D02809113
:102270004F028F5F80934F0280916502882309F49B
:1022800044C080913C028823D1F58091530288306C
:10229000A8F0809153028F3088F40E94590388235C
:1022A00069F480916602833049F480914F02823054
:1022B00029F480914F028F5F80934F0280915302E7
:1022C000882319F1809153028830F8F40E94590351
:1022D0008823D9F4809166028B30B9F480913C0256
:1022E000882399F480914F02823079F480914F02D3
:1022F000815080934F0281E080933C0206C0809120
:102300004F02843010F010923C0280914F02A4E002
:10231000B0E0082E0E94701480915D02A5E0B0E04C
:10232000082E0E94701480914F02883170F0109234
:102330004F02809153028F5F80935302809153022A
:10234000A3E0B0E0082E0E94701480915302803206
:1023500068F5809153028F3181F480916602843058
:1023600029F180916602863009F1809166028930F8
:10237000E9F0809166028B30C9F0809153028E3172
:1023800021F480916602823089F0809153028D3170
:10239000E1F4809166028230C1F48091500290E0B5
:1023A0008053984F0E947601882379F481E08093CE
:1023B0005302809166028F5F80936602809166026D
:1023C000A2E0B0E0082E0E947014809166028D3069
:1023D00078F0809150028F5F8093500281E080936B
:1023E000660280915002A1E0B0E0082E0E947014B5
:1023F00080913902882309F073C080916402882398
:1024000001F580913A02882349F08091670280FFAC
:1024100005C08DE292E00E946C0608C04091670200
:1024200060915D0280914F020E94A50380915E023F
:1024300020915402882311F0226001C02D7F209347
:10244000540280915E028823E1F090915F028091B6
:102450004F029817B1F49091510280915D02981744
:1024600081F480916702882361F461E08EE391E05A
:102470000E94B61381E08093610210924302109291
:10248000420280916002882329F480917A0080645E
:1024900080937A0080914A02882329F080914A0231
:1024A000815080934A0280914902882329F08091CB
:1024B00049028150809349028091420290914302E7
:1024C000009771F00197909343028093420220910C
:1024D000540280FF02C0226001C02D7F209354026D
:1024E000FF91EF91BF91AF919F918F917F916F91EC
:1024F0005F914F913F912F910F900FBE0F901F90C2
:10250000189506C090E000009F5F9E31E1F7815072
:102510008823C1F70895482F09C020E137E288ECED
:1025200090E00197F1F721503040C9F74150A8F7EA
:1025300008959093C5008093C40088E18093C10002
:102540008EE08093C200519A50980895982F809100
:10255000C00085FFFCCF9093C60080E090E0089516
:102560008091C00087FFFCCF8091C60090E0089565
:102570008091C00090E0807890700895282F982F67
:1025800092959F709A3030F48091C00085FFFCCF07
:10259000905D05C08091C00085FFFCCF995A909353
:1025A000C600822F90E08F7090702F700A9734F4DD
:1025B0008091C00085FFFCCF205D05C08091C000E8
:1025C00085FFFCCF295A2093C60008950F931F93CF
:1025D0008C01812F99270E94BE12802F0E94BE126B
:1025E0001F910F910895EF92FF920F931F937B011C
:1025F0008C01C801AA27BB270E94E612C7010E94CE
:10260000E6121F910F91FF90EF9008954F925F9205
:102610006F927F928F929F92AF92BF92CF92DF92F2
:10262000EF92FF920F931F93CF93DF937B018C0167
:10263000A12C2AECB22E2AE9C22E2BE3D22E44245E
:10264000C0E0D0E0C801B701A60195010E942B149B
:10265000522E222341F4442031F481E0A816B10423
:10266000C104D10461F48091C00085FFFCCF80E3F8
:10267000580E5092C60080ED580E44244394C60173
:10268000B5012AE030E040E050E00E942B1439010F
:102690004A012196CA30D10579F0652D70E080E0BD
:1026A00090E0A60195010E94D913E61AF70A080BDB
:1026B000190B64015301C6CFDF91CF911F910F9188
:1026C000FF90EF90DF90CF90BF90AF909F908F9052
:1026D0007F906F905F904F9008950F931F93CF93CB
:1026E000DF93FC01C0E1D7E230E000E010E0CF0171
:1026F000BE010E940414262F662329F4332319F403
:10270000C130D10549F48091C00085FFFCCF205D28
:102710002093C600205331E0CE016AE070E00E94B1
:1027200004140F5F1F4F0530110571F0822F90E0E8
:10273000AC014C9FC0014D9F900D5C9F900D1124EA
:10274000E81BF90BEB01D3CFDF91CF911F910F91D4
:102750000895FC0107C08091C00085FFFCCF319631
:102760009093C60090819923B1F70895DC0120E091
:1027700030E008C08091C00085FFFCCF4093C600C8
:102780002F5F3F4FFD01E20FF11D4491442391F76C
:10279000662371F08091C00085FFFCCF8AE08093B2
:1027A000C6008091C00085FFFCCF8DE08093C600FD
:1027B0000895629FD001739FF001829FE00DF11D8B
:1027C000649FE00DF11D929FF00D839FF00D749FAB
:1027D000F00D659FF00D9927729FB00DE11DF91F57
:1027E000639FB00DE11DF91FBD01CF0111240895B4
:1027F000991B79E004C0991F961708F0961B881F53
:102800007A95C9F780950895AA1BBB1B51E107C0B3
:10281000AA1FBB1FA617B70710F0A61BB70B881F70
:10282000991F5A95A9F780959095BC01CD010895FF
:1028300097FB092E07260AD077FD04D0E5DF06D0E6
:1028400000201AF4709561957F4F0895F6F79095E2
:1028500081959F4F0895A1E21A2EAA1BBB1BFD0173
:102860000DC0AA1FBB1FEE1FFF1FA217B307E4076F
:10287000F50720F0A21BB30BE40BF50B661F771FC7
:10288000881F991F1A9469F76095709580959095A7
:102890009B01AC01BD01CF01089597FB092E0526D0
:1028A0000ED057FD04D0D7DF0AD0001C38F4509565
:1028B0004095309521953F4F4F4F5F4F0895F6F764
:1028C00090958095709561957F4F8F4F9F4F08959C
:1028D000F999FECFB2BDA1BDF89A119600B4089542
:1028E000F999FECFB2BDA1BD00BC11960FB6F89408
:0A28F000FA9AF99A0FBE0895FFCF7F
:1028FA0073756E646179006D6F6E646179007475C9
:10290A006573646179007765646E736461790074D4
:10291A0068757273646179006672696461790073BB
:10292A0061747572646179006A616E00666562003D
:10293A006D6172636800617072696C006D61790023
:10294A006A756E65006A756C7900617567737400E3
:10295A0073657074006F63746F62006E6F76656D75
:10296A0000646563656D007573612D3132687200AC
:10297A006575722D3234687200766F6C20686967EB
:10298A006800766F6C20206C6F7700647374206F18
:10299A006E202000647374206F666620006272697C
:1029AA0074652000652020202020202020006578E2
:1029BA000065786900657869740065786974696E7C
:1029CA006700616C61726D206F6E00736E6F6F7A53
:1029DA00696E670073657420616C61726D0073655E
:1029EA00742074696D650073657420646174650090
:1029FA0073657420627269740073657420766F6CF3
:102A0A002000736574207265676E007365742064B4
:102A1A0073742000746573746D6F646500202020E0
:062A2A0020202020200006
:00000001FF
